{
  "_format": "hh-sol-artifact-1",
  "contractName": "StudyDAO",
  "sourceName": "contracts/StudyDAO.sol",
  "abi": [
    {
      "anonymous": false,
      "inputs": [
        {
          "indexed": true,
          "internalType": "uint256",
          "name": "proposalId",
          "type": "uint256"
        },
        {
          "indexed": false,
          "internalType": "uint256",
          "name": "totalFundsRaised",
          "type": "uint256"
        }
      ],
      "name": "FundingCompleted",
      "type": "event"
    },
    {
      "anonymous": false,
      "inputs": [
        {
          "indexed": true,
          "internalType": "address",
          "name": "member",
          "type": "address"
        },
        {
          "indexed": false,
          "internalType": "bool",
          "name": "isTeacher",
          "type": "bool"
        }
      ],
      "name": "MemberRegistered",
      "type": "event"
    },
    {
      "anonymous": false,
      "inputs": [
        {
          "indexed": true,
          "internalType": "uint256",
          "name": "proposalId",
          "type": "uint256"
        },
        {
          "indexed": true,
          "internalType": "address",
          "name": "proposer",
          "type": "address"
        },
        {
          "indexed": false,
          "internalType": "string",
          "name": "description",
          "type": "string"
        },
        {
          "indexed": false,
          "internalType": "uint256",
          "name": "goal",
          "type": "uint256"
        }
      ],
      "name": "ProposalCreated",
      "type": "event"
    },
    {
      "anonymous": false,
      "inputs": [
        {
          "indexed": true,
          "internalType": "uint256",
          "name": "proposalId",
          "type": "uint256"
        },
        {
          "indexed": true,
          "internalType": "address",
          "name": "funder",
          "type": "address"
        },
        {
          "indexed": false,
          "internalType": "uint256",
          "name": "amount",
          "type": "uint256"
        }
      ],
      "name": "ProposalFunded",
      "type": "event"
    },
    {
      "anonymous": false,
      "inputs": [
        {
          "indexed": true,
          "internalType": "uint256",
          "name": "proposalId",
          "type": "uint256"
        },
        {
          "indexed": true,
          "internalType": "address",
          "name": "voter",
          "type": "address"
        },
        {
          "indexed": false,
          "internalType": "uint256",
          "name": "votes",
          "type": "uint256"
        }
      ],
      "name": "Voted",
      "type": "event"
    },
    {
      "inputs": [],
      "name": "completeCourse",
      "outputs": [],
      "stateMutability": "nonpayable",
      "type": "function"
    },
    {
      "inputs": [],
      "name": "courseCompletionReward",
      "outputs": [
        {
          "internalType": "uint256",
          "name": "",
          "type": "uint256"
        }
      ],
      "stateMutability": "view",
      "type": "function"
    },
    {
      "inputs": [
        {
          "internalType": "uint256",
          "name": "_proposalId",
          "type": "uint256"
        }
      ],
      "name": "fundProposal",
      "outputs": [],
      "stateMutability": "payable",
      "type": "function"
    },
    {
      "inputs": [],
      "name": "getProposals",
      "outputs": [
        {
          "components": [
            {
              "internalType": "uint256",
              "name": "id",
              "type": "uint256"
            },
            {
              "internalType": "string",
              "name": "description",
              "type": "string"
            },
            {
              "internalType": "uint256",
              "name": "votes",
              "type": "uint256"
            },
            {
              "internalType": "uint256",
              "name": "fundsRaised",
              "type": "uint256"
            },
            {
              "internalType": "uint256",
              "name": "goal",
              "type": "uint256"
            },
            {
              "internalType": "address",
              "name": "proposer",
              "type": "address"
            },
            {
              "internalType": "bool",
              "name": "approved",
              "type": "bool"
            },
            {
              "internalType": "bool",
              "name": "fundingCompleted",
              "type": "bool"
            }
          ],
          "internalType": "struct StudyDAO.Proposal[]",
          "name": "",
          "type": "tuple[]"
        }
      ],
      "stateMutability": "view",
      "type": "function"
    },
    {
      "inputs": [],
      "name": "getResources",
      "outputs": [
        {
          "components": [
            {
              "internalType": "uint256",
              "name": "id",
              "type": "uint256"
            },
            {
              "internalType": "string",
              "name": "resourceURI",
              "type": "string"
            }
          ],
          "internalType": "struct StudyDAO.Resource[]",
          "name": "",
          "type": "tuple[]"
        }
      ],
      "stateMutability": "view",
      "type": "function"
    },
    {
      "inputs": [],
      "name": "getTokensEarned",
      "outputs": [
        {
          "internalType": "uint256",
          "name": "",
          "type": "uint256"
        }
      ],
      "stateMutability": "view",
      "type": "function"
    },
    {
      "inputs": [
        {
          "internalType": "address",
          "name": "",
          "type": "address"
        }
      ],
      "name": "members",
      "outputs": [
        {
          "internalType": "uint256",
          "name": "reputation",
          "type": "uint256"
        },
        {
          "internalType": "bool",
          "name": "isTeacher",
          "type": "bool"
        },
        {
          "internalType": "bool",
          "name": "isStudent",
          "type": "bool"
        },
        {
          "internalType": "uint256",
          "name": "tokensEarned",
          "type": "uint256"
        }
      ],
      "stateMutability": "view",
      "type": "function"
    },
    {
      "inputs": [
        {
          "internalType": "uint256",
          "name": "",
          "type": "uint256"
        }
      ],
      "name": "proposals",
      "outputs": [
        {
          "internalType": "uint256",
          "name": "id",
          "type": "uint256"
        },
        {
          "internalType": "string",
          "name": "description",
          "type": "string"
        },
        {
          "internalType": "uint256",
          "name": "votes",
          "type": "uint256"
        },
        {
          "internalType": "uint256",
          "name": "fundsRaised",
          "type": "uint256"
        },
        {
          "internalType": "uint256",
          "name": "goal",
          "type": "uint256"
        },
        {
          "internalType": "address",
          "name": "proposer",
          "type": "address"
        },
        {
          "internalType": "bool",
          "name": "approved",
          "type": "bool"
        },
        {
          "internalType": "bool",
          "name": "fundingCompleted",
          "type": "bool"
        }
      ],
      "stateMutability": "view",
      "type": "function"
    },
    {
      "inputs": [
        {
          "internalType": "string",
          "name": "_description",
          "type": "string"
        },
        {
          "internalType": "uint256",
          "name": "_goal",
          "type": "uint256"
        }
      ],
      "name": "proposeContent",
      "outputs": [],
      "stateMutability": "nonpayable",
      "type": "function"
    },
    {
      "inputs": [
        {
          "internalType": "bool",
          "name": "isTeacher",
          "type": "bool"
        }
      ],
      "name": "registerMember",
      "outputs": [],
      "stateMutability": "nonpayable",
      "type": "function"
    },
    {
      "inputs": [
        {
          "internalType": "string",
          "name": "_resourceURI",
          "type": "string"
        }
      ],
      "name": "saveResource",
      "outputs": [],
      "stateMutability": "nonpayable",
      "type": "function"
    },
    {
      "inputs": [
        {
          "internalType": "address",
          "name": "",
          "type": "address"
        },
        {
          "internalType": "uint256",
          "name": "",
          "type": "uint256"
        }
      ],
      "name": "studentResources",
      "outputs": [
        {
          "internalType": "uint256",
          "name": "id",
          "type": "uint256"
        },
        {
          "internalType": "string",
          "name": "resourceURI",
          "type": "string"
        }
      ],
      "stateMutability": "view",
      "type": "function"
    },
    {
      "inputs": [
        {
          "internalType": "uint256",
          "name": "_proposalId",
          "type": "uint256"
        }
      ],
      "name": "voteForProposal",
      "outputs": [],
      "stateMutability": "nonpayable",
      "type": "function"
    }
  ],
  "bytecode": "0x6080604052600a60035534801561001557600080fd5b5061236e806100256000396000f3fe6080604052600436106100c25760003560e01c806371a0edb21161007f578063bc5ddd2b11610059578063bc5ddd2b14610271578063c1cc57b01461029a578063ccf0ebd8146102c5578063e210f4b5146102f0576100c2565b806371a0edb2146102085780637795a63c14610231578063822266b114610248576100c2565b8063013cf08b146100c7578063045c6ce01461010b57806308ae4b0c1461013457806350bc5d081461017457806362564c481461019f57806366145af1146101ca575b600080fd5b3480156100d357600080fd5b506100ee60048036038101906100e9919061131c565b61030c565b604051610102989796959493929190611444565b60405180910390f35b34801561011757600080fd5b50610132600480360381019061012d919061131c565b610426565b005b34801561014057600080fd5b5061015b600480360381019061015691906114f5565b610600565b60405161016b9493929190611522565b60405180910390f35b34801561018057600080fd5b5061018961064a565b6040516101969190611567565b60405180910390f35b3480156101ab57600080fd5b506101b4610650565b6040516101c1919061176b565b60405180910390f35b3480156101d657600080fd5b506101f160048036038101906101ec919061178d565b6107f6565b6040516101ff9291906117cd565b60405180910390f35b34801561021457600080fd5b5061022f600480360381019061022a9190611932565b6108bf565b005b34801561023d57600080fd5b50610246610b01565b005b34801561025457600080fd5b5061026f600480360381019061026a919061198e565b610beb565b005b34801561027d57600080fd5b5061029860048036038101906102939190611a03565b610d5d565b005b3480156102a657600080fd5b506102af610eef565b6040516102bc9190611b2f565b60405180910390f35b3480156102d157600080fd5b506102da611027565b6040516102e79190611567565b60405180910390f35b61030a6004803603810190610305919061131c565b611070565b005b6001818154811061031c57600080fd5b906000526020600020906006020160009150905080600001549080600101805461034590611b80565b80601f016020809104026020016040519081016040528092919081815260200182805461037190611b80565b80156103be5780601f10610393576101008083540402835291602001916103be565b820191906000526020600020905b8154815290600101906020018083116103a157829003601f168201915b5050505050908060020154908060030154908060040154908060050160009054906101000a900473ffffffffffffffffffffffffffffffffffffffff16908060050160149054906101000a900460ff16908060050160159054906101000a900460ff16905088565b600180549050811061046d576040517f08c379a000000000000000000000000000000000000000000000000000000000815260040161046490611bfd565b60405180910390fd5b60006001828154811061048357610482611c1d565b5b906000526020600020906006020190508060050160149054906101000a900460ff16156104e5576040517f08c379a00000000000000000000000000000000000000000000000000000000081526004016104dc90611c98565b60405180910390fd5b6000803373ffffffffffffffffffffffffffffffffffffffff1673ffffffffffffffffffffffffffffffffffffffff1681526020019081526020016000206000015481600201600082825461053a9190611ce7565b925050819055503373ffffffffffffffffffffffffffffffffffffffff16827f1abe610cf2bf87e57dcc1181fcf5ac0934e843d8344ab9eed6e86c799f62585e6000803373ffffffffffffffffffffffffffffffffffffffff1673ffffffffffffffffffffffffffffffffffffffff168152602001908152602001600020600001546040516105c99190611567565b60405180910390a36003816002015411156105fc5760018160050160146101000a81548160ff0219169083151502179055505b5050565b60006020528060005260406000206000915090508060000154908060010160009054906101000a900460ff16908060010160019054906101000a900460ff16908060020154905084565b60035481565b60606001805480602002602001604051908101604052809291908181526020016000905b828210156107ed578382906000526020600020906006020160405180610100016040529081600082015481526020016001820180546106b290611b80565b80601f01602080910402602001604051908101604052809291908181526020018280546106de90611b80565b801561072b5780601f106107005761010080835404028352916020019161072b565b820191906000526020600020905b81548152906001019060200180831161070e57829003601f168201915b505050505081526020016002820154815260200160038201548152602001600482015481526020016005820160009054906101000a900473ffffffffffffffffffffffffffffffffffffffff1673ffffffffffffffffffffffffffffffffffffffff1673ffffffffffffffffffffffffffffffffffffffff1681526020016005820160149054906101000a900460ff161515151581526020016005820160159054906101000a900460ff16151515158152505081526020019060010190610674565b50505050905090565b6002602052816000526040600020818154811061081257600080fd5b90600052602060002090600202016000915091505080600001549080600101805461083c90611b80565b80601f016020809104026020016040519081016040528092919081815260200182805461086890611b80565b80156108b55780601f1061088a576101008083540402835291602001916108b5565b820191906000526020600020905b81548152906001019060200180831161089857829003601f168201915b5050505050905082565b6000803373ffffffffffffffffffffffffffffffffffffffff1673ffffffffffffffffffffffffffffffffffffffff16815260200190815260200160002060010160009054906101000a900460ff1661094d576040517f08c379a000000000000000000000000000000000000000000000000000000000815260040161094490611d8d565b60405180910390fd5b6001604051806101000160405280600180549050815260200184815260200160008152602001600081526020018381526020013373ffffffffffffffffffffffffffffffffffffffff1681526020016000151581526020016000151581525090806001815401808255809150506001900390600052602060002090600602016000909190919091506000820151816000015560208201518160010190816109f49190611f59565b5060408201518160020155606082015181600301556080820151816004015560a08201518160050160006101000a81548173ffffffffffffffffffffffffffffffffffffffff021916908373ffffffffffffffffffffffffffffffffffffffff16021790555060c08201518160050160146101000a81548160ff02191690831515021790555060e08201518160050160156101000a81548160ff02191690831515021790555050503373ffffffffffffffffffffffffffffffffffffffff1660018080549050610ac4919061202b565b7f98120a6aaa04295520ab4e01c6c1235dd316e822cc9ff31db7b3f197366d18bd8484604051610af592919061205f565b60405180910390a35050565b6000803373ffffffffffffffffffffffffffffffffffffffff1673ffffffffffffffffffffffffffffffffffffffff16815260200190815260200160002060010160019054906101000a900460ff16610b8f576040517f08c379a0000000000000000000000000000000000000000000000000000000008152600401610b8690612101565b60405180910390fd5b6003546000803373ffffffffffffffffffffffffffffffffffffffff1673ffffffffffffffffffffffffffffffffffffffff1681526020019081526020016000206002016000828254610be29190611ce7565b92505081905550565b6000803373ffffffffffffffffffffffffffffffffffffffff1673ffffffffffffffffffffffffffffffffffffffff16815260200190815260200160002060010160019054906101000a900460ff16610c79576040517f08c379a0000000000000000000000000000000000000000000000000000000008152600401610c7090612193565b60405180910390fd5b600260003373ffffffffffffffffffffffffffffffffffffffff1673ffffffffffffffffffffffffffffffffffffffff1681526020019081526020016000206040518060400160405280600260003373ffffffffffffffffffffffffffffffffffffffff1673ffffffffffffffffffffffffffffffffffffffff168152602001908152602001600020805490508152602001838152509080600181540180825580915050600190039060005260206000209060020201600090919091909150600082015181600001556020820151816001019081610d579190611f59565b50505050565b60008060003373ffffffffffffffffffffffffffffffffffffffff1673ffffffffffffffffffffffffffffffffffffffff1681526020019081526020016000206000015414610de1576040517f08c379a0000000000000000000000000000000000000000000000000000000008152600401610dd8906121ff565b60405180910390fd5b604051806080016040528060018152602001821515815260200182151515815260200160008152506000803373ffffffffffffffffffffffffffffffffffffffff1673ffffffffffffffffffffffffffffffffffffffff1681526020019081526020016000206000820151816000015560208201518160010160006101000a81548160ff02191690831515021790555060408201518160010160016101000a81548160ff021916908315150217905550606082015181600201559050503373ffffffffffffffffffffffffffffffffffffffff167fd5eb501de156af36b7187a443fef4786b90cd305453ae8e9f8459b98105240c782604051610ee4919061221f565b60405180910390a250565b6060600260003373ffffffffffffffffffffffffffffffffffffffff1673ffffffffffffffffffffffffffffffffffffffff168152602001908152602001600020805480602002602001604051908101604052809291908181526020016000905b8282101561101e578382906000526020600020906002020160405180604001604052908160008201548152602001600182018054610f8d90611b80565b80601f0160208091040260200160405190810160405280929190818152602001828054610fb990611b80565b80156110065780601f10610fdb57610100808354040283529160200191611006565b820191906000526020600020905b815481529060010190602001808311610fe957829003601f168201915b50505050508152505081526020019060010190610f50565b50505050905090565b60008060003373ffffffffffffffffffffffffffffffffffffffff1673ffffffffffffffffffffffffffffffffffffffff16815260200190815260200160002060020154905090565b60018054905081106110b7576040517f08c379a00000000000000000000000000000000000000000000000000000000081526004016110ae90611bfd565b60405180910390fd5b6000600182815481106110cd576110cc611c1d565b5b906000526020600020906006020190508060050160149054906101000a900460ff1661112e576040517f08c379a000000000000000000000000000000000000000000000000000000000815260040161112590612286565b60405180910390fd5b8060050160159054906101000a900460ff1615611180576040517f08c379a000000000000000000000000000000000000000000000000000000000815260040161117790612318565b60405180910390fd5b348160030160008282546111949190611ce7565b925050819055503373ffffffffffffffffffffffffffffffffffffffff16827f5b47478b1a9bcccc0683800f537f513a17c66ebb7a9b7e2773053b37fc83bb05346040516111e29190611567565b60405180910390a380600401548160030154106112ce5760018160050160156101000a81548160ff021916908315150217905550600081600301549050600082600301819055508160050160009054906101000a900473ffffffffffffffffffffffffffffffffffffffff1673ffffffffffffffffffffffffffffffffffffffff166108fc829081150290604051600060405180830381858888f19350505050158015611293573d6000803e3d6000fd5b50827facef193e0e86e1befd5fb43ab2e5687427446a96568ffb8cb4f7d588c79f6c95826040516112c49190611567565b60405180910390a2505b5050565b6000604051905090565b600080fd5b600080fd5b6000819050919050565b6112f9816112e6565b811461130457600080fd5b50565b600081359050611316816112f0565b92915050565b600060208284031215611332576113316112dc565b5b600061134084828501611307565b91505092915050565b611352816112e6565b82525050565b600081519050919050565b600082825260208201905092915050565b60005b83811015611392578082015181840152602081019050611377565b60008484015250505050565b6000601f19601f8301169050919050565b60006113ba82611358565b6113c48185611363565b93506113d4818560208601611374565b6113dd8161139e565b840191505092915050565b600073ffffffffffffffffffffffffffffffffffffffff82169050919050565b6000611413826113e8565b9050919050565b61142381611408565b82525050565b60008115159050919050565b61143e81611429565b82525050565b60006101008201905061145a600083018b611349565b818103602083015261146c818a6113af565b905061147b6040830189611349565b6114886060830188611349565b6114956080830187611349565b6114a260a083018661141a565b6114af60c0830185611435565b6114bc60e0830184611435565b9998505050505050505050565b6114d281611408565b81146114dd57600080fd5b50565b6000813590506114ef816114c9565b92915050565b60006020828403121561150b5761150a6112dc565b5b6000611519848285016114e0565b91505092915050565b60006080820190506115376000830187611349565b6115446020830186611435565b6115516040830185611435565b61155e6060830184611349565b95945050505050565b600060208201905061157c6000830184611349565b92915050565b600081519050919050565b600082825260208201905092915050565b6000819050602082019050919050565b6115b7816112e6565b82525050565b600082825260208201905092915050565b60006115d982611358565b6115e381856115bd565b93506115f3818560208601611374565b6115fc8161139e565b840191505092915050565b61161081611408565b82525050565b61161f81611429565b82525050565b60006101008301600083015161163e60008601826115ae565b506020830151848203602086015261165682826115ce565b915050604083015161166b60408601826115ae565b50606083015161167e60608601826115ae565b50608083015161169160808601826115ae565b5060a08301516116a460a0860182611607565b5060c08301516116b760c0860182611616565b5060e08301516116ca60e0860182611616565b508091505092915050565b60006116e18383611625565b905092915050565b6000602082019050919050565b600061170182611582565b61170b818561158d565b93508360208202850161171d8561159e565b8060005b85811015611759578484038952815161173a85826116d5565b9450611745836116e9565b925060208a01995050600181019050611721565b50829750879550505050505092915050565b6000602082019050818103600083015261178581846116f6565b905092915050565b600080604083850312156117a4576117a36112dc565b5b60006117b2858286016114e0565b92505060206117c385828601611307565b9150509250929050565b60006040820190506117e26000830185611349565b81810360208301526117f481846113af565b90509392505050565b600080fd5b600080fd5b7f4e487b7100000000000000000000000000000000000000000000000000000000600052604160045260246000fd5b61183f8261139e565b810181811067ffffffffffffffff8211171561185e5761185d611807565b5b80604052505050565b60006118716112d2565b905061187d8282611836565b919050565b600067ffffffffffffffff82111561189d5761189c611807565b5b6118a68261139e565b9050602081019050919050565b82818337600083830152505050565b60006118d56118d084611882565b611867565b9050828152602081018484840111156118f1576118f0611802565b5b6118fc8482856118b3565b509392505050565b600082601f830112611919576119186117fd565b5b81356119298482602086016118c2565b91505092915050565b60008060408385031215611949576119486112dc565b5b600083013567ffffffffffffffff811115611967576119666112e1565b5b61197385828601611904565b925050602061198485828601611307565b9150509250929050565b6000602082840312156119a4576119a36112dc565b5b600082013567ffffffffffffffff8111156119c2576119c16112e1565b5b6119ce84828501611904565b91505092915050565b6119e081611429565b81146119eb57600080fd5b50565b6000813590506119fd816119d7565b92915050565b600060208284031215611a1957611a186112dc565b5b6000611a27848285016119ee565b91505092915050565b600081519050919050565b600082825260208201905092915050565b6000819050602082019050919050565b6000604083016000830151611a7460008601826115ae565b5060208301518482036020860152611a8c82826115ce565b9150508091505092915050565b6000611aa58383611a5c565b905092915050565b6000602082019050919050565b6000611ac582611a30565b611acf8185611a3b565b935083602082028501611ae185611a4c565b8060005b85811015611b1d5784840389528151611afe8582611a99565b9450611b0983611aad565b925060208a01995050600181019050611ae5565b50829750879550505050505092915050565b60006020820190508181036000830152611b498184611aba565b905092915050565b7f4e487b7100000000000000000000000000000000000000000000000000000000600052602260045260246000fd5b60006002820490506001821680611b9857607f821691505b602082108103611bab57611baa611b51565b5b50919050565b7f496e76616c69642070726f706f73616c2049442e000000000000000000000000600082015250565b6000611be7601483611363565b9150611bf282611bb1565b602082019050919050565b60006020820190508181036000830152611c1681611bda565b9050919050565b7f4e487b7100000000000000000000000000000000000000000000000000000000600052603260045260246000fd5b7f50726f706f73616c20616c726561647920617070726f7665642e000000000000600082015250565b6000611c82601a83611363565b9150611c8d82611c4c565b602082019050919050565b60006020820190508181036000830152611cb181611c75565b9050919050565b7f4e487b7100000000000000000000000000000000000000000000000000000000600052601160045260246000fd5b6000611cf2826112e6565b9150611cfd836112e6565b9250828201905080821115611d1557611d14611cb8565b5b92915050565b7f4f6e6c792074656163686572732063616e2070726f706f736520636f6e74656e60008201527f742e000000000000000000000000000000000000000000000000000000000000602082015250565b6000611d77602283611363565b9150611d8282611d1b565b604082019050919050565b60006020820190508181036000830152611da681611d6a565b9050919050565b60008190508160005260206000209050919050565b60006020601f8301049050919050565b600082821b905092915050565b600060088302611e0f7fffffffffffffffffffffffffffffffffffffffffffffffffffffffffffffffff82611dd2565b611e198683611dd2565b95508019841693508086168417925050509392505050565b6000819050919050565b6000611e56611e51611e4c846112e6565b611e31565b6112e6565b9050919050565b6000819050919050565b611e7083611e3b565b611e84611e7c82611e5d565b848454611ddf565b825550505050565b600090565b611e99611e8c565b611ea4818484611e67565b505050565b5b81811015611ec857611ebd600082611e91565b600181019050611eaa565b5050565b601f821115611f0d57611ede81611dad565b611ee784611dc2565b81016020851015611ef6578190505b611f0a611f0285611dc2565b830182611ea9565b50505b505050565b600082821c905092915050565b6000611f3060001984600802611f12565b1980831691505092915050565b6000611f498383611f1f565b9150826002028217905092915050565b611f6282611358565b67ffffffffffffffff811115611f7b57611f7a611807565b5b611f858254611b80565b611f90828285611ecc565b600060209050601f831160018114611fc35760008415611fb1578287015190505b611fbb8582611f3d565b865550612023565b601f198416611fd186611dad565b60005b82811015611ff957848901518255600182019150602085019450602081019050611fd4565b868310156120165784890151612012601f891682611f1f565b8355505b6001600288020188555050505b505050505050565b6000612036826112e6565b9150612041836112e6565b925082820390508181111561205957612058611cb8565b5b92915050565b6000604082019050818103600083015261207981856113af565b90506120886020830184611349565b9392505050565b7f4f6e6c792073747564656e74732063616e20636f6d706c65746520636f75727360008201527f65732e0000000000000000000000000000000000000000000000000000000000602082015250565b60006120eb602383611363565b91506120f68261208f565b604082019050919050565b6000602082019050818103600083015261211a816120de565b9050919050565b7f4f6e6c792073747564656e74732063616e2073617665207265736f757263657360008201527f2e00000000000000000000000000000000000000000000000000000000000000602082015250565b600061217d602183611363565b915061218882612121565b604082019050919050565b600060208201905081810360008301526121ac81612170565b9050919050565b7f4d656d62657220697320616c726561647920726567697374657265642e000000600082015250565b60006121e9601d83611363565b91506121f4826121b3565b602082019050919050565b60006020820190508181036000830152612218816121dc565b9050919050565b60006020820190506122346000830184611435565b92915050565b7f50726f706f73616c206e6f7420617070726f766564207965742e000000000000600082015250565b6000612270601a83611363565b915061227b8261223a565b602082019050919050565b6000602082019050818103600083015261229f81612263565b9050919050565b7f46756e64696e6720616c726561647920636f6d706c6574656420666f7220746860008201527f69732070726f706f73616c2e0000000000000000000000000000000000000000602082015250565b6000612302602c83611363565b915061230d826122a6565b604082019050919050565b60006020820190508181036000830152612331816122f5565b905091905056fea2646970667358221220c8a2bad3903e3e31e4d68a2b8b8a98ff11b2d6e9ed63341464c270241ed3e2ec64736f6c63430008140033",
  "linkReferences": {},
  "deployedLinkReferences": {}
}